{
  "_format": "hh-sol-artifact-1",
  "contractName": "Bank",
  "sourceName": "contracts/Bank.sol",
  "abi": [
    {
      "inputs": [],
      "name": "getAllTransactionsHistory",
      "outputs": [
        {
          "components": [
            {
              "internalType": "string",
              "name": "namewhowantmoney",
              "type": "string"
            },
            {
              "internalType": "string",
              "name": "messageofwhowantmoney",
              "type": "string"
            },
            {
              "internalType": "uint256",
              "name": "amountofwhowantmoney",
              "type": "uint256"
            },
            {
              "internalType": "string",
              "name": "paymentType",
              "type": "string"
            },
            {
              "internalType": "address",
              "name": "whowantmoney",
              "type": "address"
            },
            {
              "internalType": "uint256",
              "name": "timestamp",
              "type": "uint256"
            }
          ],
          "internalType": "struct Bank.AmountPay[]",
          "name": "",
          "type": "tuple[]"
        }
      ],
      "stateMutability": "view",
      "type": "function"
    },
    {
      "inputs": [
        {
          "internalType": "address",
          "name": "sender",
          "type": "address"
        }
      ],
      "name": "getAmountToPay",
      "outputs": [
        {
          "components": [
            {
              "internalType": "string",
              "name": "namewhowantmoney",
              "type": "string"
            },
            {
              "internalType": "string",
              "name": "messageofwhowantmoney",
              "type": "string"
            },
            {
              "internalType": "uint256",
              "name": "amountofwhowantmoney",
              "type": "uint256"
            },
            {
              "internalType": "string",
              "name": "paymentType",
              "type": "string"
            },
            {
              "internalType": "address",
              "name": "whowantmoney",
              "type": "address"
            },
            {
              "internalType": "uint256",
              "name": "timestamp",
              "type": "uint256"
            }
          ],
          "internalType": "struct Bank.AmountPay[]",
          "name": "",
          "type": "tuple[]"
        }
      ],
      "stateMutability": "view",
      "type": "function"
    },
    {
      "inputs": [],
      "name": "getReqCount",
      "outputs": [
        {
          "internalType": "uint256",
          "name": "",
          "type": "uint256"
        }
      ],
      "stateMutability": "view",
      "type": "function"
    },
    {
      "inputs": [
        {
          "internalType": "address",
          "name": "requester",
          "type": "address"
        }
      ],
      "name": "getReqHistory",
      "outputs": [
        {
          "components": [
            {
              "internalType": "string",
              "name": "name",
              "type": "string"
            },
            {
              "internalType": "string",
              "name": "message",
              "type": "string"
            },
            {
              "internalType": "uint256",
              "name": "amount",
              "type": "uint256"
            },
            {
              "internalType": "string",
              "name": "paymentType",
              "type": "string"
            },
            {
              "internalType": "address",
              "name": "whowillsendmoney",
              "type": "address"
            },
            {
              "internalType": "uint256",
              "name": "timestamp",
              "type": "uint256"
            }
          ],
          "internalType": "struct Bank.Transaction[]",
          "name": "",
          "type": "tuple[]"
        }
      ],
      "stateMutability": "view",
      "type": "function"
    },
    {
      "inputs": [],
      "name": "getimgDetails",
      "outputs": [
        {
          "internalType": "string",
          "name": "",
          "type": "string"
        }
      ],
      "stateMutability": "view",
      "type": "function"
    },
    {
      "inputs": [],
      "name": "getuserNameDetails",
      "outputs": [
        {
          "internalType": "string",
          "name": "",
          "type": "string"
        }
      ],
      "stateMutability": "view",
      "type": "function"
    },
    {
      "inputs": [
        {
          "internalType": "address",
          "name": "",
          "type": "address"
        }
      ],
      "name": "imgurl",
      "outputs": [
        {
          "internalType": "string",
          "name": "",
          "type": "string"
        }
      ],
      "stateMutability": "view",
      "type": "function"
    },
    {
      "inputs": [
        {
          "internalType": "address",
          "name": "",
          "type": "address"
        }
      ],
      "name": "reqCount",
      "outputs": [
        {
          "internalType": "uint256",
          "name": "",
          "type": "uint256"
        }
      ],
      "stateMutability": "view",
      "type": "function"
    },
    {
      "inputs": [
        {
          "internalType": "address",
          "name": "whowillgivemoney",
          "type": "address"
        },
        {
          "internalType": "uint256",
          "name": "_amount",
          "type": "uint256"
        },
        {
          "internalType": "string",
          "name": "_name",
          "type": "string"
        },
        {
          "internalType": "string",
          "name": "_message",
          "type": "string"
        }
      ],
      "name": "requestAmount",
      "outputs": [],
      "stateMutability": "nonpayable",
      "type": "function"
    },
    {
      "inputs": [
        {
          "internalType": "address",
          "name": "whowantmoney",
          "type": "address"
        },
        {
          "internalType": "uint256",
          "name": "amounts",
          "type": "uint256"
        },
        {
          "internalType": "string",
          "name": "name",
          "type": "string"
        },
        {
          "internalType": "string",
          "name": "message",
          "type": "string"
        }
      ],
      "name": "sendAmount",
      "outputs": [],
      "stateMutability": "payable",
      "type": "function"
    },
    {
      "inputs": [
        {
          "internalType": "address",
          "name": "whowantmoney",
          "type": "address"
        },
        {
          "internalType": "uint256",
          "name": "amounts",
          "type": "uint256"
        },
        {
          "internalType": "string",
          "name": "name",
          "type": "string"
        },
        {
          "internalType": "string",
          "name": "message",
          "type": "string"
        }
      ],
      "name": "sendAmountToPay",
      "outputs": [],
      "stateMutability": "payable",
      "type": "function"
    },
    {
      "inputs": [
        {
          "internalType": "string",
          "name": "url",
          "type": "string"
        },
        {
          "internalType": "string",
          "name": "name",
          "type": "string"
        }
      ],
      "name": "setDetails",
      "outputs": [],
      "stateMutability": "nonpayable",
      "type": "function"
    },
    {
      "inputs": [
        {
          "internalType": "address",
          "name": "",
          "type": "address"
        }
      ],
      "name": "username",
      "outputs": [
        {
          "internalType": "string",
          "name": "",
          "type": "string"
        }
      ],
      "stateMutability": "view",
      "type": "function"
    }
  ],
  "bytecode": "0x6080604052348015600f57600080fd5b5061299c8061001f6000396000f3fe6080604052600436106100c15760003560e01c8063718011b91161007f578063beaafe4e11610059578063beaafe4e1461025f578063cdaa65191461029c578063d1f862ae146102c5578063e7e97c46146102f0576100c1565b8063718011b9146101ce5780637a9b89361461020b578063b7b090ee14610236576100c1565b806241d436146100c65780630152a31a146100e25780630610a7a21461010d57806331f3b8421461014a5780634d1af4d01461016657806369ad3976146101a3575b600080fd5b6100e060048036038101906100db9190611e6e565b61032d565b005b3480156100ee57600080fd5b506100f76104f9565b6040516101049190611f8c565b60405180910390f35b34801561011957600080fd5b50610134600480360381019061012f9190611fae565b6105c8565b6040516101419190611f8c565b60405180910390f35b610164600480360381019061015f9190611e6e565b610668565b005b34801561017257600080fd5b5061018d60048036038101906101889190611fae565b610de1565b60405161019a9190611f8c565b60405180910390f35b3480156101af57600080fd5b506101b8610e81565b6040516101c59190611fea565b60405180910390f35b3480156101da57600080fd5b506101f560048036038101906101f09190611fae565b610ec8565b60405161020291906121c6565b60405180910390f35b34801561021757600080fd5b50610220611186565b60405161022d9190612341565b60405180910390f35b34801561024257600080fd5b5061025d60048036038101906102589190612363565b611442565b005b34801561026b57600080fd5b5061028660048036038101906102819190611fae565b611524565b6040516102939190612341565b60405180910390f35b3480156102a857600080fd5b506102c360048036038101906102be9190611e6e565b6117e2565b005b3480156102d157600080fd5b506102da611b3d565b6040516102e79190611f8c565b60405180910390f35b3480156102fc57600080fd5b5061031760048036038101906103129190611fae565b611c0b565b6040516103249190611fea565b60405180910390f35b8373ffffffffffffffffffffffffffffffffffffffff166108fc849081150290604051600060405180830381858888f19350505050158015610373573d6000803e3d6000fd5b50600560003373ffffffffffffffffffffffffffffffffffffffff1673ffffffffffffffffffffffffffffffffffffffff1681526020019081526020016000206040518060c001604052808481526020018381526020018581526020016040518060400160405280600681526020017f53656e646572000000000000000000000000000000000000000000000000000081525081526020018673ffffffffffffffffffffffffffffffffffffffff168152602001428152509080600181540180825580915050600190039060005260206000209060060201600090919091909150600082015181600001908161046991906125e7565b50602082015181600101908161047f91906125e7565b5060408201518160020155606082015181600301908161049f91906125e7565b5060808201518160040160006101000a81548173ffffffffffffffffffffffffffffffffffffffff021916908373ffffffffffffffffffffffffffffffffffffffff16021790555060a08201518160050155505050505050565b6060600160003373ffffffffffffffffffffffffffffffffffffffff1673ffffffffffffffffffffffffffffffffffffffff16815260200190815260200160002080546105459061240a565b80601f01602080910402602001604051908101604052809291908181526020018280546105719061240a565b80156105be5780601f10610593576101008083540402835291602001916105be565b820191906000526020600020905b8154815290600101906020018083116105a157829003601f168201915b5050505050905090565b600060205280600052604060002060009150905080546105e79061240a565b80601f01602080910402602001604051908101604052809291908181526020018280546106139061240a565b80156106605780601f1061063557610100808354040283529160200191610660565b820191906000526020600020905b81548152906001019060200180831161064357829003601f168201915b505050505081565b6000600460003373ffffffffffffffffffffffffffffffffffffffff1673ffffffffffffffffffffffffffffffffffffffff16815260200190815260200160002090506000600360008773ffffffffffffffffffffffffffffffffffffffff1673ffffffffffffffffffffffffffffffffffffffff168152602001908152602001600020905060008060005b84805490508110156107d55787858281548110610714576107136126b9565b5b90600052602060002090600602016002015414801561077157508580519060200120858281548110610749576107486126b9565b5b9060005260206000209060060201600101604051610767919061278b565b6040518091039020145b80156107bb57508680519060200120858281548110610793576107926126b9565b5b90600052602060002090600602016000016040516107b1919061278b565b6040518091039020145b156107c8578091506107d5565b80806001019150506106f4565b5060005b83805490508110156108ba57878482815481106107f9576107f86126b9565b5b9060005260206000209060060201600201541480156108565750858051906020012084828154811061082e5761082d6126b9565b5b906000526020600020906006020160010160405161084c919061278b565b6040518091039020145b80156108a057508680519060200120848281548110610878576108776126b9565b5b9060005260206000209060060201600001604051610896919061278b565b6040518091039020145b156108ad578092506108ba565b80806001019150506107d9565b508773ffffffffffffffffffffffffffffffffffffffff166108fc889081150290604051600060405180830381858888f19350505050158015610901573d6000803e3d6000fd5b506001600260003373ffffffffffffffffffffffffffffffffffffffff1673ffffffffffffffffffffffffffffffffffffffff168152602001908152602001600020600082825461095291906127d1565b92505081905550600560003373ffffffffffffffffffffffffffffffffffffffff1673ffffffffffffffffffffffffffffffffffffffff1681526020019081526020016000206040518060c001604052808881526020018781526020018981526020016040518060400160405280600681526020017f53656e646572000000000000000000000000000000000000000000000000000081525081526020018a73ffffffffffffffffffffffffffffffffffffffff1681526020014281525090806001815401808255809150506001900390600052602060002090600602016000909190919091506000820151816000019081610a4e91906125e7565b506020820151816001019081610a6491906125e7565b50604082015181600201556060820151816003019081610a8491906125e7565b5060808201518160040160006101000a81548173ffffffffffffffffffffffffffffffffffffffff021916908373ffffffffffffffffffffffffffffffffffffffff16021790555060a0820151816005015550506040518060400160405280600481526020017f5061696400000000000000000000000000000000000000000000000000000000815250600360008a73ffffffffffffffffffffffffffffffffffffffff1673ffffffffffffffffffffffffffffffffffffffff1681526020019081526020016000208381548110610b5f57610b5e6126b9565b5b90600052602060002090600602016003019081610b7c91906125e7565b50600460003373ffffffffffffffffffffffffffffffffffffffff1673ffffffffffffffffffffffffffffffffffffffff16815260200190815260200160002060018580549050610bcd91906127d1565b81548110610bde57610bdd6126b9565b5b9060005260206000209060060201600460003373ffffffffffffffffffffffffffffffffffffffff1673ffffffffffffffffffffffffffffffffffffffff1681526020019081526020016000208281548110610c3d57610c3c6126b9565b5b906000526020600020906006020160008201816000019081610c5f919061281b565b5060018201816001019081610c74919061281b565b506002820154816002015560038201816003019081610c93919061281b565b506004820160009054906101000a900473ffffffffffffffffffffffffffffffffffffffff168160040160006101000a81548173ffffffffffffffffffffffffffffffffffffffff021916908373ffffffffffffffffffffffffffffffffffffffff16021790555060058201548160050155905050600460003373ffffffffffffffffffffffffffffffffffffffff1673ffffffffffffffffffffffffffffffffffffffff168152602001908152602001600020805480610d5757610d56612903565b5b600190038181906000526020600020906006020160008082016000610d7c9190611c23565b600182016000610d8c9190611c23565b6002820160009055600382016000610da49190611c23565b6004820160006101000a81549073ffffffffffffffffffffffffffffffffffffffff02191690556005820160009055505090555050505050505050565b60016020528060005260406000206000915090508054610e009061240a565b80601f0160208091040260200160405190810160405280929190818152602001828054610e2c9061240a565b8015610e795780601f10610e4e57610100808354040283529160200191610e79565b820191906000526020600020905b815481529060010190602001808311610e5c57829003601f168201915b505050505081565b6000600260003373ffffffffffffffffffffffffffffffffffffffff1673ffffffffffffffffffffffffffffffffffffffff16815260200190815260200160002054905090565b6060600360008373ffffffffffffffffffffffffffffffffffffffff1673ffffffffffffffffffffffffffffffffffffffff168152602001908152602001600020805480602002602001604051908101604052809291908181526020016000905b8282101561117b57838290600052602060002090600602016040518060c0016040529081600082018054610f5c9061240a565b80601f0160208091040260200160405190810160405280929190818152602001828054610f889061240a565b8015610fd55780601f10610faa57610100808354040283529160200191610fd5565b820191906000526020600020905b815481529060010190602001808311610fb857829003601f168201915b50505050508152602001600182018054610fee9061240a565b80601f016020809104026020016040519081016040528092919081815260200182805461101a9061240a565b80156110675780601f1061103c57610100808354040283529160200191611067565b820191906000526020600020905b81548152906001019060200180831161104a57829003601f168201915b505050505081526020016002820154815260200160038201805461108a9061240a565b80601f01602080910402602001604051908101604052809291908181526020018280546110b69061240a565b80156111035780601f106110d857610100808354040283529160200191611103565b820191906000526020600020905b8154815290600101906020018083116110e657829003601f168201915b505050505081526020016004820160009054906101000a900473ffffffffffffffffffffffffffffffffffffffff1673ffffffffffffffffffffffffffffffffffffffff1673ffffffffffffffffffffffffffffffffffffffff16815260200160058201548152505081526020019060010190610f29565b505050509050919050565b6060600560003373ffffffffffffffffffffffffffffffffffffffff1673ffffffffffffffffffffffffffffffffffffffff168152602001908152602001600020805480602002602001604051908101604052809291908181526020016000905b8282101561143957838290600052602060002090600602016040518060c001604052908160008201805461121a9061240a565b80601f01602080910402602001604051908101604052809291908181526020018280546112469061240a565b80156112935780601f1061126857610100808354040283529160200191611293565b820191906000526020600020905b81548152906001019060200180831161127657829003601f168201915b505050505081526020016001820180546112ac9061240a565b80601f01602080910402602001604051908101604052809291908181526020018280546112d89061240a565b80156113255780601f106112fa57610100808354040283529160200191611325565b820191906000526020600020905b81548152906001019060200180831161130857829003601f168201915b50505050508152602001600282015481526020016003820180546113489061240a565b80601f01602080910402602001604051908101604052809291908181526020018280546113749061240a565b80156113c15780601f10611396576101008083540402835291602001916113c1565b820191906000526020600020905b8154815290600101906020018083116113a457829003601f168201915b505050505081526020016004820160009054906101000a900473ffffffffffffffffffffffffffffffffffffffff1673ffffffffffffffffffffffffffffffffffffffff1673ffffffffffffffffffffffffffffffffffffffff168152602001600582015481525050815260200190600101906111e7565b50505050905090565b81600160003373ffffffffffffffffffffffffffffffffffffffff1673ffffffffffffffffffffffffffffffffffffffff168152602001908152602001600020908161148e91906125e7565b5060008151116114d3576040518060400160405280600981526020017f416e6f6e796d6f757300000000000000000000000000000000000000000000008152506114d5565b805b6000803373ffffffffffffffffffffffffffffffffffffffff1673ffffffffffffffffffffffffffffffffffffffff168152602001908152602001600020908161151f91906125e7565b505050565b6060600460008373ffffffffffffffffffffffffffffffffffffffff1673ffffffffffffffffffffffffffffffffffffffff168152602001908152602001600020805480602002602001604051908101604052809291908181526020016000905b828210156117d757838290600052602060002090600602016040518060c00160405290816000820180546115b89061240a565b80601f01602080910402602001604051908101604052809291908181526020018280546115e49061240a565b80156116315780601f1061160657610100808354040283529160200191611631565b820191906000526020600020905b81548152906001019060200180831161161457829003601f168201915b5050505050815260200160018201805461164a9061240a565b80601f01602080910402602001604051908101604052809291908181526020018280546116769061240a565b80156116c35780601f10611698576101008083540402835291602001916116c3565b820191906000526020600020905b8154815290600101906020018083116116a657829003601f168201915b50505050508152602001600282015481526020016003820180546116e69061240a565b80601f01602080910402602001604051908101604052809291908181526020018280546117129061240a565b801561175f5780601f106117345761010080835404028352916020019161175f565b820191906000526020600020905b81548152906001019060200180831161174257829003601f168201915b505050505081526020016004820160009054906101000a900473ffffffffffffffffffffffffffffffffffffffff1673ffffffffffffffffffffffffffffffffffffffff1673ffffffffffffffffffffffffffffffffffffffff16815260200160058201548152505081526020019060010190611585565b505050509050919050565b600360003373ffffffffffffffffffffffffffffffffffffffff1673ffffffffffffffffffffffffffffffffffffffff1681526020019081526020016000206040518060c001604052808481526020018381526020018581526020016040518060400160405280600781526020017f50656e64696e670000000000000000000000000000000000000000000000000081525081526020018673ffffffffffffffffffffffffffffffffffffffff16815260200142815250908060018154018082558091505060019003906000526020600020906006020160009091909190915060008201518160000190816118d791906125e7565b5060208201518160010190816118ed91906125e7565b5060408201518160020155606082015181600301908161190d91906125e7565b5060808201518160040160006101000a81548173ffffffffffffffffffffffffffffffffffffffff021916908373ffffffffffffffffffffffffffffffffffffffff16021790555060a0820151816005015550506001600260003373ffffffffffffffffffffffffffffffffffffffff1673ffffffffffffffffffffffffffffffffffffffff16815260200190815260200160002060008282546119b19190612932565b92505081905550600460008573ffffffffffffffffffffffffffffffffffffffff1673ffffffffffffffffffffffffffffffffffffffff1681526020019081526020016000206040518060c001604052808481526020018381526020018581526020016040518060400160405280600781526020017f50656e64696e670000000000000000000000000000000000000000000000000081525081526020013373ffffffffffffffffffffffffffffffffffffffff1681526020014281525090806001815401808255809150506001900390600052602060002090600602016000909190919091506000820151816000019081611aad91906125e7565b506020820151816001019081611ac391906125e7565b50604082015181600201556060820151816003019081611ae391906125e7565b5060808201518160040160006101000a81548173ffffffffffffffffffffffffffffffffffffffff021916908373ffffffffffffffffffffffffffffffffffffffff16021790555060a08201518160050155505050505050565b60606000803373ffffffffffffffffffffffffffffffffffffffff1673ffffffffffffffffffffffffffffffffffffffff1681526020019081526020016000208054611b889061240a565b80601f0160208091040260200160405190810160405280929190818152602001828054611bb49061240a565b8015611c015780601f10611bd657610100808354040283529160200191611c01565b820191906000526020600020905b815481529060010190602001808311611be457829003601f168201915b5050505050905090565b60026020528060005260406000206000915090505481565b508054611c2f9061240a565b6000825580601f10611c415750611c60565b601f016020900490600052602060002090810190611c5f9190611c63565b5b50565b5b80821115611c7c576000816000905550600101611c64565b5090565b6000604051905090565b600080fd5b600080fd5b600073ffffffffffffffffffffffffffffffffffffffff82169050919050565b6000611cbf82611c94565b9050919050565b611ccf81611cb4565b8114611cda57600080fd5b50565b600081359050611cec81611cc6565b92915050565b6000819050919050565b611d0581611cf2565b8114611d1057600080fd5b50565b600081359050611d2281611cfc565b92915050565b600080fd5b600080fd5b6000601f19601f8301169050919050565b7f4e487b7100000000000000000000000000000000000000000000000000000000600052604160045260246000fd5b611d7b82611d32565b810181811067ffffffffffffffff82111715611d9a57611d99611d43565b5b80604052505050565b6000611dad611c80565b9050611db98282611d72565b919050565b600067ffffffffffffffff821115611dd957611dd8611d43565b5b611de282611d32565b9050602081019050919050565b82818337600083830152505050565b6000611e11611e0c84611dbe565b611da3565b905082815260208101848484011115611e2d57611e2c611d2d565b5b611e38848285611def565b509392505050565b600082601f830112611e5557611e54611d28565b5b8135611e65848260208601611dfe565b91505092915050565b60008060008060808587031215611e8857611e87611c8a565b5b6000611e9687828801611cdd565b9450506020611ea787828801611d13565b935050604085013567ffffffffffffffff811115611ec857611ec7611c8f565b5b611ed487828801611e40565b925050606085013567ffffffffffffffff811115611ef557611ef4611c8f565b5b611f0187828801611e40565b91505092959194509250565b600081519050919050565b600082825260208201905092915050565b60005b83811015611f47578082015181840152602081019050611f2c565b60008484015250505050565b6000611f5e82611f0d565b611f688185611f18565b9350611f78818560208601611f29565b611f8181611d32565b840191505092915050565b60006020820190508181036000830152611fa68184611f53565b905092915050565b600060208284031215611fc457611fc3611c8a565b5b6000611fd284828501611cdd565b91505092915050565b611fe481611cf2565b82525050565b6000602082019050611fff6000830184611fdb565b92915050565b600081519050919050565b600082825260208201905092915050565b6000819050602082019050919050565b600082825260208201905092915050565b600061204d82611f0d565b6120578185612031565b9350612067818560208601611f29565b61207081611d32565b840191505092915050565b61208481611cf2565b82525050565b61209381611cb4565b82525050565b600060c08301600083015184820360008601526120b68282612042565b915050602083015184820360208601526120d08282612042565b91505060408301516120e5604086018261207b565b50606083015184820360608601526120fd8282612042565b9150506080830151612112608086018261208a565b5060a083015161212560a086018261207b565b508091505092915050565b600061213c8383612099565b905092915050565b6000602082019050919050565b600061215c82612005565b6121668185612010565b93508360208202850161217885612021565b8060005b858110156121b457848403895281516121958582612130565b94506121a083612144565b925060208a0199505060018101905061217c565b50829750879550505050505092915050565b600060208201905081810360008301526121e08184612151565b905092915050565b600081519050919050565b600082825260208201905092915050565b6000819050602082019050919050565b600060c08301600083015184820360008601526122318282612042565b9150506020830151848203602086015261224b8282612042565b9150506040830151612260604086018261207b565b50606083015184820360608601526122788282612042565b915050608083015161228d608086018261208a565b5060a08301516122a060a086018261207b565b508091505092915050565b60006122b78383612214565b905092915050565b6000602082019050919050565b60006122d7826121e8565b6122e181856121f3565b9350836020820285016122f385612204565b8060005b8581101561232f578484038952815161231085826122ab565b945061231b836122bf565b925060208a019950506001810190506122f7565b50829750879550505050505092915050565b6000602082019050818103600083015261235b81846122cc565b905092915050565b6000806040838503121561237a57612379611c8a565b5b600083013567ffffffffffffffff81111561239857612397611c8f565b5b6123a485828601611e40565b925050602083013567ffffffffffffffff8111156123c5576123c4611c8f565b5b6123d185828601611e40565b9150509250929050565b7f4e487b7100000000000000000000000000000000000000000000000000000000600052602260045260246000fd5b6000600282049050600182168061242257607f821691505b602082108103612435576124346123db565b5b50919050565b60008190508160005260206000209050919050565b60006020601f8301049050919050565b600082821b905092915050565b60006008830261249d7fffffffffffffffffffffffffffffffffffffffffffffffffffffffffffffffff82612460565b6124a78683612460565b95508019841693508086168417925050509392505050565b6000819050919050565b60006124e46124df6124da84611cf2565b6124bf565b611cf2565b9050919050565b6000819050919050565b6124fe836124c9565b61251261250a826124eb565b84845461246d565b825550505050565b600090565b61252761251a565b6125328184846124f5565b505050565b5b818110156125565761254b60008261251f565b600181019050612538565b5050565b601f82111561259b5761256c8161243b565b61257584612450565b81016020851015612584578190505b61259861259085612450565b830182612537565b50505b505050565b600082821c905092915050565b60006125be600019846008026125a0565b1980831691505092915050565b60006125d783836125ad565b9150826002028217905092915050565b6125f082611f0d565b67ffffffffffffffff81111561260957612608611d43565b5b612613825461240a565b61261e82828561255a565b600060209050601f831160018114612651576000841561263f578287015190505b61264985826125cb565b8655506126b1565b601f19841661265f8661243b565b60005b8281101561268757848901518255600182019150602085019450602081019050612662565b868310156126a457848901516126a0601f8916826125ad565b8355505b6001600288020188555050505b505050505050565b7f4e487b7100000000000000000000000000000000000000000000000000000000600052603260045260246000fd5b600081905092915050565b60008190508160005260206000209050919050565b600081546127158161240a565b61271f81866126e8565b9450600182166000811461273a576001811461274f57612782565b60ff1983168652811515820286019350612782565b612758856126f3565b60005b8381101561277a5781548189015260018201915060208101905061275b565b838801955050505b50505092915050565b60006127978284612708565b915081905092915050565b7f4e487b7100000000000000000000000000000000000000000000000000000000600052601160045260246000fd5b60006127dc82611cf2565b91506127e783611cf2565b92508282039050818111156127ff576127fe6127a2565b5b92915050565b6000815490506128148161240a565b9050919050565b818103612829575050612901565b61283282612805565b67ffffffffffffffff81111561284b5761284a611d43565b5b612855825461240a565b61286082828561255a565b6000601f83116001811461288f576000841561287d578287015490505b61288785826125cb565b8655506128fa565b601f19841661289d8761243b565b96506128a88661243b565b60005b828110156128d0578489015482556001820191506001850194506020810190506128ab565b868310156128ed57848901546128e9601f8916826125ad565b8355505b6001600288020188555050505b5050505050505b565b7f4e487b7100000000000000000000000000000000000000000000000000000000600052603160045260246000fd5b600061293d82611cf2565b915061294883611cf2565b92508282019050808211156129605761295f6127a2565b5b9291505056fea264697066735822122017266a3d44bc18ba28957549f5e4b1e0dafe970b43487affbf0260b8d1a5360c64736f6c634300081b0033",
  "linkReferences": {},
  "deployedLinkReferences": {}
}